:020000040800F2
:1000000098070020CD01000899070008B9030008EF
:100010002104000887020008D31100080000000036
:10002000000000000000000000000000E10B0008DC
:100030008B0200080000000021080008CD0C000819
:10004000E7010008E7010008E7010008E7010008F0
:10005000E7010008E7010008E7010008E7010008E0
:10006000E7010008E7010008E7010008E7010008D0
:10007000E7010008E7010008E7010008E7010008C0
:10008000E7010008E7010008E7010008E7010008B0
:10009000E7010008E7010008E7010008E7010008A0
:1000A000E7010008E7010008E7010008E701000890
:1000B000E7010008E7010008E7010008E701000880
:1000C000E7010008E7010008E7010008E701000870
:1000D000E7010008CD0F0008E7010008E70100086C
:1000E000E7010008E7010008E7010008E701000850
:1000F000E7010008E7010008E7010008E701000840
:10010000E7010008E7010008E7010008E70100082F
:10011000E7010008E7010008E7010008E70100081F
:10012000E7010008E7010008E7010008E70100080F
:1001300000F002F800F03AF80AA090E8000C8244BF
:100140008344AAF10107DA4501D100F02FF8AFF29C
:10015000090EBAE80F0013F0010F18BFFB1A43F0A5
:1001600001031847B8100000D8100000103A24BF4F
:1001700078C878C1FAD8520724BF30C830C144BF0C
:1001800004680C607047000000230024002500264E
:10019000103A28BF78C1FBD8520728BF30C148BFEA
:1001A0000B6070471FB51FBD10B510BD00F031F8D2
:1001B0001146FFF7F7FF01F012F800F04FF803B413
:1001C000FFF7F2FF03BC00F057F800000948804732
:1001D00009480047FEE7FEE7FEE7FEE7FEE7FEE729
:1001E000FEE7FEE7FEE7FEE704480549054A064B41
:1001F00070470000450D00083101000898010020FB
:10020000980700209803002098030020704770474B
:100210007047754600F02CF8AE4605006946534617
:1002200020F00700854618B020B5FFF7DDFFBDE8D8
:1002300020404FF000064FF000074FF000084FF04D
:10024000000B21F00701AC46ACE8C009ACE8C009DE
:10025000ACE8C009ACE8C0098D46704710B504464B
:10026000AFF300802046BDE81040FFF7A8BF0000B4
:10027000004870473801002001491820ABBEFEE756
:1002800026000200704700BFFEE770472DE9F041ED
:10029000024600250026002000230024002791F8B4
:1002A00003C00CF00F0591F803C00CF0100CBCF16A
:1002B000000F03D091F802C04CEA050591F800C088
:1002C000BCF1000F31D0146800202BE04FF0010C7E
:1002D0000CFA00F3B1F800C00CEA03069E4220D1EC
:1002E00083004FF00F0C0CFA03F7BC4305FA03FC34
:1002F0004CEA040491F803C0BCF1280F06D14FF07A
:10030000010C0CFA00FCC2F814C00AE091F803C01A
:10031000BCF1480F05D14FF0010C0CFA00FCC2F8FB
:1003200010C0401C0828D1D31460B1F800C0BCF143
:10033000FF0F34DD546800202EE000F1080C4FF070
:10034000010808FA0CF3B1F800C00CEA03069E425B
:1003500021D183004FF00F0C0CFA03F7BC4305FAD0
:1003600003FC4CEA040491F803C0BCF1280F05D14A
:1003700000F1080C08FA0CF8C2F8148091F803C0D8
:10038000BCF1480F07D100F1080C4FF0010808FA42
:100390000CF8C2F81080401C0828CED35460BDE889
:1003A000F0814161704701617047000001480068B9
:1003B000704700002800002000BFFEE708B50121BB
:1003C000082000F03FFA10208DF8030003208DF87C
:1003D00002002020ADF8000069461048FFF756FFE4
:1003E0000120ADF8000069460C48FFF74FFF0220DE
:1003F000ADF8000069460948FFF748FF00BF20211B
:100400000648FFF7D0FF01210448FFF7CCFF022187
:100410000248FFF7C8FF00BF08BD0000000C014004
:1004200000BFFEE730B502460B464FF6FF7011E005
:1004300012F8014B604000210AE000F0010424B1F1
:100440004AF2010484EA600000E040104C1CA1B2B2
:100450000829F2DB1C1EA3F10105ABB2E8D130BDC7
:100460002DE9F04104460D46042D01D2BDE8F0818E
:1004700020781B490978884202D0207800B1F5E73E
:10048000A81E81B22046FFF7CDFF0646A81E215CBC
:10049000681E205C41EA0027BE4200D0E6E7607893
:1004A000032804D0062807D010280FD109E02946D8
:1004B000204600F017F810E02946204600F0BBF86F
:1004C0000BE02946204600F065F806E0207818B1D8
:1004D0006078012100F03EF900BF00BF00BFC5E712
:1004E0002E0000202DE9F043C1B005468846B8F142
:1004F000080F08D0287830B16878032100F02AF975
:1005000041B0BDE8F083287800B9F9E7A81C00F0F5
:1005100089FA0746281D00F085FA04460CB17D2CA7
:1005200004DD6878032100F015F9E9E72146384633
:1005300000F00CFB20B96878022100F00BF9DFE72E
:10054000134800788DF8040003208DF8050060063C
:10055000000E8DF8060000260EE0B91988B200F0F2
:1005600007FB8146032101EB460101AA8818494691
:1005700000F031FE701C86B2A642EEDB032000EBD9
:10058000440081B201A800F0D3F800BFB8E7000032
:100590002E0000202DE9F04704460F46092F07D210
:1005A000207818B16078032100F0D4F8BDE8F08716
:1005B000A01C00F037FA8046201D00F033FA0546F3
:1005C00094F806906DB17B2D0BD86800484508D192
:1005D00009F10900B84204D12946404600F0B6FAB4
:1005E00030B9207818B16078022100F0B3F8DDE767
:1005F000002616E0072101EB4601081900F012FA67
:10060000824608EB060188B2514600F0C5FA30B9BF
:10061000207818B16078022100F09CF8C6E7701CC1
:1006200086B2AE42E6DB207818B10621204600F003
:100630007FF800BFBAE72DE9F04104460D46082DCA
:1006400007D0207818B16078032100F083F8BDE866
:10065000F081A01C00F0E6F90646201D00F0E2F94A
:1006600007463946304600F097FA30B9207818B17D
:100670006078022100F06EF8E9E7207818B10621D1
:10068000204600F055F800BFE1E70000034908707C
:100690000021034A1180034A117070472E00002088
:1006A0002C0000202F00002030B5C1B00E4800788B
:1006B00008B941B030BD72B60C480588002405E089
:1006C0000B48005D01A90855601C84B2AC42F7DB01
:1006D0000020054908700549088062B6294601A82E
:1006E000FFF7BEFE00BFE4E72F0000202C00002033
:1006F000380000200B49097801B170470A49098880
:10070000FF2909D80949084A1288885406490988E6
:10071000491C054A118002E00021034A118000BFF4
:10072000EBE700002F0000202C0000203800002004
:1007300070B505460C4621462846FFF773FE06466F
:100740002E553112601C2954A01CC1B2284600F05D
:1007500051F970BD7CB505460C46074800788DF808
:10076000000045F080008DF801008DF80240032163
:100770006846FFF7DDFF7CBD2E00002010B5044663
:10078000B4F57A7F01D94FF47A742146014800F01C
:10079000BEFB10BD000400407047000070B5002192
:1007A00000230F22C47804B3154C246804F4E064D9
:1007B000C4F5E064210AC1F10403CA40447804FA94
:1007C00003F184781440214309010E4C0678A155A9
:1007D000047804F01F050124AC4005786D11AD00CC
:1007E00005F1E025C5F8004109E0047804F01F0593
:1007F0000124AC40044D0678761145F8264070BDC2
:100800000CED00E000E400E080E100E0024901437B
:10081000024A1160704700000000FA050CED00E08C
:100820007047000029B1064AD2690243044BDA61DD
:1008300004E0034AD2698243014BDA617047000049
:100840000010024029B1064A92690243044B9A61A2
:1008500004E0034A92698243014B9A6170470000A9
:100860000010024030B500210022002400232D4D4D
:100870006D6805F00C0121B1042905D0082923D1A8
:1008800005E0294D056022E0274D05601FE0254D5C
:100890006D6805F47012234D6D6805F480340225EF
:1008A00005EB92421CB9214D554305600BE01D4DEF
:1008B0006D6805F400351DB11C4D5543056002E01F
:1008C000194D5543056002E0174D056000BF00BF9C
:1008D000144D6D6805F0F0010909154D6B5C056854
:1008E000DD4045600F4D6D6805F4E061090A104D6B
:1008F0006B5C4568DD4085600A4D6D6805F46051AC
:10090000C90A0B4D6B5C4568DD40C560054D6D68DF
:1009100005F44041890B074D6B5CC568B5FBF3F5E9
:10092000056130BD0010024000127A0000093D0050
:10093000140000202400002000B587B0012104200D
:10094000FFF780FF01218803FFF77CFF4FF4007061
:10095000ADF8180018208DF81B0003208DF81A0040
:1009600006A92248FFF792FC4FF48060ADF818000A
:1009700004208DF81B0006A91C48FFF787FC4FF4E4
:10098000165002900020ADF80C00ADF80E00ADF846
:100990001000ADF814000C20ADF8120002A91448A4
:1009A00000F0A2FB4FF4A060FFF730FF25208DF888
:1009B000040001208DF805008DF806008DF8070071
:1009C00001A8FFF7EBFE012240F22551084800F094
:1009D00066FB012240F22441054800F060FB012142
:1009E000034800F019FB07B000BD000000080140FB
:1009F0000038014070B505460E4600240CE0295D24
:100A0000074800F0E2FB00BF4021054800F010FB62
:100A10000028F9D0601CC4B2B442F0DB70BD000005
:100A200000380140014648780A7840EA02207047C1
:100A300010B50446082C6FD2DFE804F06E041322D0
:100A400031404F5E00BF20213C48FFF7AAFC012146
:100A50003A48FFF7A8FC02213848FFF7A4FC00BF82
:100A600069E000BF20213548FFF79DFC0121334894
:100A7000FFF797FC02213148FFF795FC00BF5AE0D1
:100A800000BF20212D48FFF78EFC01212B48FFF7E6
:100A90008AFC02212948FFF784FC00BF4BE000BF1D
:100AA00020212648FFF77DFC01212448FFF779FC2F
:100AB00002212248FFF777FC00BF3CE000BF202165
:100AC0001E48FFF76EFC01211C48FFF76CFC022159
:100AD0001A48FFF766FC00BF2DE000BF2021174831
:100AE000FFF761FC01211548FFF75BFC0221134869
:100AF000FFF757FC00BF1EE000BF20210F48FFF7A3
:100B000050FC01210D48FFF74CFC02210B48FFF778
:100B100048FC00BF0FE0FFE700BF20210748FFF7B8
:100B200042FC01210548FFF73EFC02210348FFF784
:100B30003AFC00BF00BF00BF10BD0000000C014028
:100B400010B504462046FFF719FE10BD024609B94C
:100B500000207047032A01D30020FAE7C2F1030006
:100B600080B2884201DA0020F3E70120F1E70000BB
:100B70000146032901D300207047024830F81100D4
:100B8000FAE700003000002002488088401C01493C
:100B9000888070473000002070B504460D46032C55
:100BA00001D3002070BD1CB9072D01D90020F9E741
:100BB000012C04D1B5F57A7F01D90020F2E707486E
:100BC00020F814501CB92846FFF732FF04E0012C2E
:100BD00002D12846FFF7B4FF0120E3E730000020F0
:100BE000704710B500F002F810BD00000CB50020F1
:100BF000019000903348006840F48030314908602B
:100C000000BF3048006800F4003000900198401C9C
:100C10000190009818B90198B0F5A06FF1D129485A
:100C2000006800F4003010B10120009001E00020C5
:100C300000900098012843D12348006840F010003C
:100C4000214908600846006820F003000860084653
:100C5000006840F0020008601A484068194948607E
:100C60000846406848600846406840F48060486034
:100C70000846406820F47C1048600846406840F40C
:100C8000E81048600846006840F08070086000BFC7
:100C90000C48006800F000700028F9D0094840684E
:100CA00020F00300074948600846406840F0020011
:100CB000486000BF0348406800F00C000828F9D1E4
:100CC0000CBD0000001002400020024002480068F5
:100CD000401C0149086070472800002030B51648C4
:100CE00000684FF47A72B0FBF2F1B1F1807F01D36A
:100CF00001201DE021F07F40401E4FF0E0225061B6
:100D000050170F22002807DA13071D0E0B4B00F0B7
:100D10000F04241F1D5503E013071C0E084B1C5421
:100D200000BF00204FF0E0229061072010610020FA
:100D300008B100BFFEE730BD0000002018ED00E064
:100D400000E400E010B51348006840F001001149CC
:100D5000086008464068104908400E494860084647
:100D600000680E4908400B4908600846006820F4F6
:100D7000802008600846406820F4FE0048604FF478
:100D80001F008860FFF72DFF4FF0006004490860E6
:100D900010BD0000001002400000FFF8FFFFF6FE4B
:100DA00008ED00E030B589B005460C46012102206F
:100DB000FFF738FD01210420FFF744FD4020ADF886
:100DC000200018208DF8230003208DF8220008A9A8
:100DD0001748FFF75BFA05A800F0EEF8ADF81850D9
:100DE000ADF814400020ADF81A00ADF8160005A9C2
:100DF000104800F08FF801A800F07FF86020ADF8EF
:100E000004000120ADF806000020ADF80A00ADF89E
:100E10000C0001A9074800F01BF80821054800F064
:100E200063F80121034800F007F809B030BD000065
:100E3000000801400004004021B1028842F0010294
:100E4000028004E002884FF6FE731A400280704769
:100E500070B5002400220023058C4FF6FE76354045
:100E60000584028C8388048B4FF68F752C40B51E49
:100E70002C400D882C43751E2A400D892A434D882D
:100E80002A43144DA8420BD0134DA84208D0134D4D
:100E9000A84205D0124DA84202D0124DA84213D14B
:100EA0004FF6F7752A404D892A434FF6FB752A40C5
:100EB0008D882A434FF6FF652B404FF6FF552B4098
:100EC0008D892B43CD892B4383800483CD888586F0
:100ED000028470BD002C01400034014000400140FC
:100EE00000440140004801400A460021018B4FF6B2
:100EF000F77319401143018370470021018041803D
:100F00008180C180018141818181C1817047818659
:100F100070470000002202881D4B98420ED01D4BE6
:100F200098420BD0B0F1804F08D01B4B984205D0AF
:100F30001A4B984202D01A4B984204D14FF68F7345
:100F40001A404B881A43174B984207D0164B9842C9
:100F500004D04FF6FF431A40CB881A4302808B8897
:100F600083850B8803850A4B98420BD0094B984226
:100F700008D00E4B984205D00D4B984202D00D4B35
:100F8000984201D10B7A03860123838270470000C7
:100F9000002C0140003401400004004000080040E3
:100FA000000C0040001000400014004000400140D0
:100FB00000440140004801404FF6FF71818000214C
:100FC0000180C180418001727047000038B540F255
:100FD00025510F4800F039F830B10D4800F0F0F815
:100FE000C4B22046FFF786FB40F22441084800F0D7
:100FF0002CF860B10648008800900548001D008864
:101000000090BDF8000001200249087000BF38BD03
:10101000003801402F00002021B1828942F40052A3
:10102000828104E082894DF6FF731A408281704705
:1010300002460020B1F5007F00D100BF13880B40AD
:101040000BB1012000E00020704770B5024600247B
:1010500000230025002040F66A16B14200D100BFEF
:10106000C1F3421501F01F03012606FA03F3012D17
:1010700002D19689334006E0022D02D1168A334010
:1010800001E0968A33400C12012606FA04F4168811
:10109000344013B10CB1012000E0002070BDF0B568
:1010A0000346002400260025002040F66A17B942B6
:1010B00000D100BF1846C1F3421401F01F060127FA
:1010C00007FA06F5012C01D10C3004E0022C01D105
:1010D000103000E014301AB107682F43076002E0B7
:1010E0000768AF430760F0BD2DE9F04786B00546BD
:1010F0000E460024A24600BFA1460027B08900B1D9
:1011000000BF2F462C8A4CF6FF700440F088044341
:101110002C82AC894EF6F3100440B0883189084324
:10112000718908430443AC81AC8A4FF6FF40044008
:10113000B0890443AC8201A8FFF794FB1F488742A3
:1011400002D1DDF810A001E0DDF80CA0A88900F4C0
:10115000004040B10AEBCA0000EB0A1031684900B8
:10116000B0FBF1F807E00AEBCA0000EB0A103168A7
:101170008900B0FBF1F86420B8FBF0F0040120090D
:10118000642101FB1089A88900F4004040B132209D
:1011900000EBC900B0FBF1F000F00700044308E0E9
:1011A000322000EB09106421B0FBF1F000F00F00D9
:1011B00004432C8106B0BDE8F087000000380140F0
:1011C00001468888C0F308007047C1F30802828096
:1011D000704700BFFEE70A12027041707047FFF7C8
:1011E0007DFDFFF7EBF847214FF47A70FFF7DAFD4A
:1011F000FFF7A2FB0120FFF749FAFFF7D7F80446F3
:101200000BE0FFF751FAFFF7D1F8001BB0F57A7F3A
:1012100003D304F57A74FFF7B7FCF2E73C12000839
:1012200000000020380000006C0100087412000863
:1012300038000020600700008801000800A24A046E
:101240000000000000000000010203040607080976
:10125000000000000102030401020304060708095C
:101260000204060800000000000001000000000069
:04127000000000007A
:0400000508000131BD
:00000001FF
